:02000000804E30
:02000300018E6C
:02000B00019161
:10005000758107116B11741178117E30B00530B1C4
:100060000680F8790180F4790280F07900759000BB
:100070007580002275B8022275A883D288227589FE
:1000800001758CD8758AEF78327EC9D28C227903BB
:1000900032758AD8758CEFDE307E32B2A0DF2A7FCF
:1000A00002B9030132B90117E590B4090C7590004B
:1000B000E580B4050775800032059032058032B9BD
:0A00C00002077590007580003232CF
:00000001FF
